{
  "_format": "hh-sol-artifact-1",
  "contractName": "Token",
  "sourceName": "contracts/Token.sol",
  "abi": [
    {
      "inputs": [
        {
          "internalType": "string",
          "name": "_name",
          "type": "string"
        },
        {
          "internalType": "string",
          "name": "_symbol",
          "type": "string"
        },
        {
          "internalType": "uint256",
          "name": "_totalSupply",
          "type": "uint256"
        }
      ],
      "stateMutability": "nonpayable",
      "type": "constructor"
    },
    {
      "anonymous": false,
      "inputs": [
        {
          "indexed": true,
          "internalType": "address",
          "name": "from",
          "type": "address"
        },
        {
          "indexed": true,
          "internalType": "address",
          "name": "spender",
          "type": "address"
        },
        {
          "indexed": false,
          "internalType": "uint256",
          "name": "value",
          "type": "uint256"
        }
      ],
      "name": "Approval",
      "type": "event"
    },
    {
      "anonymous": false,
      "inputs": [
        {
          "indexed": true,
          "internalType": "address",
          "name": "from",
          "type": "address"
        },
        {
          "indexed": true,
          "internalType": "address",
          "name": "to",
          "type": "address"
        },
        {
          "indexed": false,
          "internalType": "uint256",
          "name": "value",
          "type": "uint256"
        }
      ],
      "name": "Transfer",
      "type": "event"
    },
    {
      "inputs": [
        {
          "internalType": "address",
          "name": "",
          "type": "address"
        },
        {
          "internalType": "address",
          "name": "",
          "type": "address"
        }
      ],
      "name": "allowance",
      "outputs": [
        {
          "internalType": "uint256",
          "name": "",
          "type": "uint256"
        }
      ],
      "stateMutability": "view",
      "type": "function"
    },
    {
      "inputs": [
        {
          "internalType": "address",
          "name": "_spender",
          "type": "address"
        },
        {
          "internalType": "uint256",
          "name": "_value",
          "type": "uint256"
        }
      ],
      "name": "approve",
      "outputs": [
        {
          "internalType": "bool",
          "name": "success",
          "type": "bool"
        }
      ],
      "stateMutability": "nonpayable",
      "type": "function"
    },
    {
      "inputs": [
        {
          "internalType": "address",
          "name": "",
          "type": "address"
        }
      ],
      "name": "balanceOf",
      "outputs": [
        {
          "internalType": "uint256",
          "name": "",
          "type": "uint256"
        }
      ],
      "stateMutability": "view",
      "type": "function"
    },
    {
      "inputs": [],
      "name": "buyToken",
      "outputs": [],
      "stateMutability": "payable",
      "type": "function"
    },
    {
      "inputs": [],
      "name": "decimals",
      "outputs": [
        {
          "internalType": "uint256",
          "name": "",
          "type": "uint256"
        }
      ],
      "stateMutability": "view",
      "type": "function"
    },
    {
      "inputs": [],
      "name": "manager",
      "outputs": [
        {
          "internalType": "address",
          "name": "",
          "type": "address"
        }
      ],
      "stateMutability": "view",
      "type": "function"
    },
    {
      "inputs": [],
      "name": "name",
      "outputs": [
        {
          "internalType": "string",
          "name": "",
          "type": "string"
        }
      ],
      "stateMutability": "view",
      "type": "function"
    },
    {
      "inputs": [
        {
          "internalType": "bool",
          "name": "_per",
          "type": "bool"
        }
      ],
      "name": "setSellToken",
      "outputs": [],
      "stateMutability": "nonpayable",
      "type": "function"
    },
    {
      "inputs": [],
      "name": "symbol",
      "outputs": [
        {
          "internalType": "string",
          "name": "",
          "type": "string"
        }
      ],
      "stateMutability": "view",
      "type": "function"
    },
    {
      "inputs": [],
      "name": "totalSupply",
      "outputs": [
        {
          "internalType": "uint256",
          "name": "",
          "type": "uint256"
        }
      ],
      "stateMutability": "view",
      "type": "function"
    },
    {
      "inputs": [
        {
          "internalType": "address",
          "name": "_to",
          "type": "address"
        },
        {
          "internalType": "uint256",
          "name": "_value",
          "type": "uint256"
        }
      ],
      "name": "transfer",
      "outputs": [
        {
          "internalType": "bool",
          "name": "",
          "type": "bool"
        }
      ],
      "stateMutability": "nonpayable",
      "type": "function"
    },
    {
      "inputs": [
        {
          "internalType": "address",
          "name": "_from",
          "type": "address"
        },
        {
          "internalType": "address",
          "name": "_to",
          "type": "address"
        },
        {
          "internalType": "uint256",
          "name": "_value",
          "type": "uint256"
        }
      ],
      "name": "transferFrom",
      "outputs": [
        {
          "internalType": "bool",
          "name": "",
          "type": "bool"
        }
      ],
      "stateMutability": "nonpayable",
      "type": "function"
    }
  ],
  "bytecode": "0x608060405260126002556001600460006101000a81548160ff0219169083151502179055503480156200003157600080fd5b50604051620019a4380380620019a48339818101604052810190620000579190620002fd565b8260009081620000689190620005d8565b5081600190816200007a9190620005d8565b50600254600a6200008c919062000842565b8162000099919062000893565b600381905550600354600560003373ffffffffffffffffffffffffffffffffffffffff1673ffffffffffffffffffffffffffffffffffffffff1681526020019081526020016000208190555033600460016101000a81548173ffffffffffffffffffffffffffffffffffffffff021916908373ffffffffffffffffffffffffffffffffffffffff160217905550505050620008de565b6000604051905090565b600080fd5b600080fd5b600080fd5b600080fd5b6000601f19601f8301169050919050565b7f4e487b7100000000000000000000000000000000000000000000000000000000600052604160045260246000fd5b62000198826200014d565b810181811067ffffffffffffffff82111715620001ba57620001b96200015e565b5b80604052505050565b6000620001cf6200012f565b9050620001dd82826200018d565b919050565b600067ffffffffffffffff8211156200020057620001ff6200015e565b5b6200020b826200014d565b9050602081019050919050565b60005b83811015620002385780820151818401526020810190506200021b565b60008484015250505050565b60006200025b6200025584620001e2565b620001c3565b9050828152602081018484840111156200027a576200027962000148565b5b6200028784828562000218565b509392505050565b600082601f830112620002a757620002a662000143565b5b8151620002b984826020860162000244565b91505092915050565b6000819050919050565b620002d781620002c2565b8114620002e357600080fd5b50565b600081519050620002f781620002cc565b92915050565b60008060006060848603121562000319576200031862000139565b5b600084015167ffffffffffffffff8111156200033a57620003396200013e565b5b62000348868287016200028f565b935050602084015167ffffffffffffffff8111156200036c576200036b6200013e565b5b6200037a868287016200028f565b92505060406200038d86828701620002e6565b9150509250925092565b600081519050919050565b7f4e487b7100000000000000000000000000000000000000000000000000000000600052602260045260246000fd5b60006002820490506001821680620003ea57607f821691505b6020821081036200040057620003ff620003a2565b5b50919050565b60008190508160005260206000209050919050565b60006020601f8301049050919050565b600082821b905092915050565b6000600883026200046a7fffffffffffffffffffffffffffffffffffffffffffffffffffffffffffffffff826200042b565b6200047686836200042b565b95508019841693508086168417925050509392505050565b6000819050919050565b6000620004b9620004b3620004ad84620002c2565b6200048e565b620002c2565b9050919050565b6000819050919050565b620004d58362000498565b620004ed620004e482620004c0565b84845462000438565b825550505050565b600090565b62000504620004f5565b62000511818484620004ca565b505050565b5b8181101562000539576200052d600082620004fa565b60018101905062000517565b5050565b601f8211156200058857620005528162000406565b6200055d846200041b565b810160208510156200056d578190505b620005856200057c856200041b565b83018262000516565b50505b505050565b600082821c905092915050565b6000620005ad600019846008026200058d565b1980831691505092915050565b6000620005c883836200059a565b9150826002028217905092915050565b620005e38262000397565b67ffffffffffffffff811115620005ff57620005fe6200015e565b5b6200060b8254620003d1565b620006188282856200053d565b600060209050601f8311600181146200065057600084156200063b578287015190505b620006478582620005ba565b865550620006b7565b601f198416620006608662000406565b60005b828110156200068a5784890151825560018201915060208501945060208101905062000663565b86831015620006aa5784890151620006a6601f8916826200059a565b8355505b6001600288020188555050505b505050505050565b7f4e487b7100000000000000000000000000000000000000000000000000000000600052601160045260246000fd5b60008160011c9050919050565b6000808291508390505b60018511156200074d57808604811115620007255762000724620006bf565b5b6001851615620007355780820291505b80810290506200074585620006ee565b945062000705565b94509492505050565b6000826200076857600190506200083b565b816200077857600090506200083b565b81600181146200079157600281146200079c57620007d2565b60019150506200083b565b60ff841115620007b157620007b0620006bf565b5b8360020a915084821115620007cb57620007ca620006bf565b5b506200083b565b5060208310610133831016604e8410600b84101617156200080c5782820a905083811115620008065762000805620006bf565b5b6200083b565b6200081b8484846001620006fb565b92509050818404811115620008355762000834620006bf565b5b81810290505b9392505050565b60006200084f82620002c2565b91506200085c83620002c2565b92506200088b7fffffffffffffffffffffffffffffffffffffffffffffffffffffffffffffffff848462000756565b905092915050565b6000620008a082620002c2565b9150620008ad83620002c2565b9250828202620008bd81620002c2565b91508282048414831517620008d757620008d6620006bf565b5b5092915050565b6110b680620008ee6000396000f3fe6080604052600436106100a75760003560e01c806370a082311161006457806370a08231146101d257806394b9ff241461020f57806395d89b4114610238578063a482171914610263578063a9059cbb1461026d578063dd62ed3e146102aa576100a7565b806306fdde03146100ac578063095ea7b3146100d757806318160ddd1461011457806323b872dd1461013f578063313ce5671461017c578063481c6a75146101a7575b600080fd5b3480156100b857600080fd5b506100c16102e7565b6040516100ce9190610b15565b60405180910390f35b3480156100e357600080fd5b506100fe60048036038101906100f99190610bd0565b610375565b60405161010b9190610c2b565b60405180910390f35b34801561012057600080fd5b506101296104d5565b6040516101369190610c55565b60405180910390f35b34801561014b57600080fd5b5061016660048036038101906101619190610c70565b6104db565b6040516101739190610c2b565b60405180910390f35b34801561018857600080fd5b506101916106bb565b60405161019e9190610c55565b60405180910390f35b3480156101b357600080fd5b506101bc6106c1565b6040516101c99190610cd2565b60405180910390f35b3480156101de57600080fd5b506101f960048036038101906101f49190610ced565b6106e7565b6040516102069190610c55565b60405180910390f35b34801561021b57600080fd5b5061023660048036038101906102319190610d46565b6106ff565b005b34801561024457600080fd5b5061024d6107ac565b60405161025a9190610b15565b60405180910390f35b61026b61083a565b005b34801561027957600080fd5b50610294600480360381019061028f9190610bd0565b61083c565b6040516102a19190610c2b565b60405180910390f35b3480156102b657600080fd5b506102d160048036038101906102cc9190610d73565b610851565b6040516102de9190610c55565b60405180910390f35b600080546102f490610de2565b80601f016020809104026020016040519081016040528092919081815260200182805461032090610de2565b801561036d5780601f106103425761010080835404028352916020019161036d565b820191906000526020600020905b81548152906001019060200180831161035057829003601f168201915b505050505081565b60008073ffffffffffffffffffffffffffffffffffffffff168373ffffffffffffffffffffffffffffffffffffffff16036103e5576040517f08c379a00000000000000000000000000000000000000000000000000000000081526004016103dc90610e5f565b60405180910390fd5b81600660003373ffffffffffffffffffffffffffffffffffffffff1673ffffffffffffffffffffffffffffffffffffffff16815260200190815260200160002060008573ffffffffffffffffffffffffffffffffffffffff1673ffffffffffffffffffffffffffffffffffffffff168152602001908152602001600020819055508273ffffffffffffffffffffffffffffffffffffffff163373ffffffffffffffffffffffffffffffffffffffff167f8c5be1e5ebec7d5bd14f71427d1e84f3dd0314c0f7b2291e5b200ac8c7c3b925846040516104c39190610c55565b60405180910390a36001905092915050565b60035481565b600081600660008673ffffffffffffffffffffffffffffffffffffffff1673ffffffffffffffffffffffffffffffffffffffff16815260200190815260200160002060003373ffffffffffffffffffffffffffffffffffffffff1673ffffffffffffffffffffffffffffffffffffffff16815260200190815260200160002054101561059c576040517f08c379a000000000000000000000000000000000000000000000000000000000815260040161059390610ef1565b60405180910390fd5b81600660008673ffffffffffffffffffffffffffffffffffffffff1673ffffffffffffffffffffffffffffffffffffffff16815260200190815260200160002060003373ffffffffffffffffffffffffffffffffffffffff1673ffffffffffffffffffffffffffffffffffffffff168152602001908152602001600020546106249190610f40565b600660008673ffffffffffffffffffffffffffffffffffffffff1673ffffffffffffffffffffffffffffffffffffffff16815260200190815260200160002060003373ffffffffffffffffffffffffffffffffffffffff1673ffffffffffffffffffffffffffffffffffffffff168152602001908152602001600020819055506106af848484610876565b50600190509392505050565b60025481565b600460019054906101000a900473ffffffffffffffffffffffffffffffffffffffff1681565b60056020528060005260406000206000915090505481565b600460019054906101000a900473ffffffffffffffffffffffffffffffffffffffff1673ffffffffffffffffffffffffffffffffffffffff163373ffffffffffffffffffffffffffffffffffffffff161461078f576040517f08c379a000000000000000000000000000000000000000000000000000000000815260040161078690610fc0565b60405180910390fd5b80600460006101000a81548160ff02191690831515021790555050565b600180546107b990610de2565b80601f01602080910402602001604051908101604052809291908181526020018280546107e590610de2565b80156108325780601f1061080757610100808354040283529160200191610832565b820191906000526020600020905b81548152906001019060200180831161081557829003601f168201915b505050505081565b565b6000610849338484610876565b905092915050565b6006602052816000526040600020602052806000526040600020600091509150505481565b600081600560008673ffffffffffffffffffffffffffffffffffffffff1673ffffffffffffffffffffffffffffffffffffffff1681526020019081526020016000205410156108fa576040517f08c379a00000000000000000000000000000000000000000000000000000000081526004016108f19061102c565b60405180910390fd5b600073ffffffffffffffffffffffffffffffffffffffff168373ffffffffffffffffffffffffffffffffffffffff1603610969576040517f08c379a000000000000000000000000000000000000000000000000000000000815260040161096090610e5f565b60405180910390fd5b81600560008573ffffffffffffffffffffffffffffffffffffffff1673ffffffffffffffffffffffffffffffffffffffff16815260200190815260200160002060008282546109b8919061104c565b9250508190555081600560008673ffffffffffffffffffffffffffffffffffffffff1673ffffffffffffffffffffffffffffffffffffffff1681526020019081526020016000206000828254610a0e9190610f40565b925050819055508273ffffffffffffffffffffffffffffffffffffffff168473ffffffffffffffffffffffffffffffffffffffff167fddf252ad1be2c89b69c2b068fc378daa952ba7f163c4a11628f55a4df523b3ef84604051610a729190610c55565b60405180910390a3600190509392505050565b600081519050919050565b600082825260208201905092915050565b60005b83811015610abf578082015181840152602081019050610aa4565b60008484015250505050565b6000601f19601f8301169050919050565b6000610ae782610a85565b610af18185610a90565b9350610b01818560208601610aa1565b610b0a81610acb565b840191505092915050565b60006020820190508181036000830152610b2f8184610adc565b905092915050565b600080fd5b600073ffffffffffffffffffffffffffffffffffffffff82169050919050565b6000610b6782610b3c565b9050919050565b610b7781610b5c565b8114610b8257600080fd5b50565b600081359050610b9481610b6e565b92915050565b6000819050919050565b610bad81610b9a565b8114610bb857600080fd5b50565b600081359050610bca81610ba4565b92915050565b60008060408385031215610be757610be6610b37565b5b6000610bf585828601610b85565b9250506020610c0685828601610bbb565b9150509250929050565b60008115159050919050565b610c2581610c10565b82525050565b6000602082019050610c406000830184610c1c565b92915050565b610c4f81610b9a565b82525050565b6000602082019050610c6a6000830184610c46565b92915050565b600080600060608486031215610c8957610c88610b37565b5b6000610c9786828701610b85565b9350506020610ca886828701610b85565b9250506040610cb986828701610bbb565b9150509250925092565b610ccc81610b5c565b82525050565b6000602082019050610ce76000830184610cc3565b92915050565b600060208284031215610d0357610d02610b37565b5b6000610d1184828501610b85565b91505092915050565b610d2381610c10565b8114610d2e57600080fd5b50565b600081359050610d4081610d1a565b92915050565b600060208284031215610d5c57610d5b610b37565b5b6000610d6a84828501610d31565b91505092915050565b60008060408385031215610d8a57610d89610b37565b5b6000610d9885828601610b85565b9250506020610da985828601610b85565b9150509250929050565b7f4e487b7100000000000000000000000000000000000000000000000000000000600052602260045260246000fd5b60006002820490506001821680610dfa57607f821691505b602082108103610e0d57610e0c610db3565b5b50919050565b7f506c6561736520456e74657220436f7272656374204164647265737300000000600082015250565b6000610e49601c83610a90565b9150610e5482610e13565b602082019050919050565b60006020820190508181036000830152610e7881610e3c565b9050919050565b7f596f7520446f6e27742068617665205065726d697373696f6e20666f7220547260008201527f616e736665722074686520546f6b656e00000000000000000000000000000000602082015250565b6000610edb603083610a90565b9150610ee682610e7f565b604082019050919050565b60006020820190508181036000830152610f0a81610ece565b9050919050565b7f4e487b7100000000000000000000000000000000000000000000000000000000600052601160045260246000fd5b6000610f4b82610b9a565b9150610f5683610b9a565b9250828203905081811115610f6e57610f6d610f11565b5b92915050565b7f5065726d697373696f6e2044656e696564000000000000000000000000000000600082015250565b6000610faa601183610a90565b9150610fb582610f74565b602082019050919050565b60006020820190508181036000830152610fd981610f9d565b9050919050565b7f596f7520446f6e2774206861766520656e6f7567682042616c61636500000000600082015250565b6000611016601c83610a90565b915061102182610fe0565b602082019050919050565b6000602082019050818103600083015261104581611009565b9050919050565b600061105782610b9a565b915061106283610b9a565b925082820190508082111561107a57611079610f11565b5b9291505056fea26469706673582212207b1b30ba62f7c7327454fc65d924e7d0bdd2839f9bc3c678b7230c93b492cb5c64736f6c63430008120033",
  "linkReferences": {},
  "deployedLinkReferences": {}
}